:020000040800F2
:100000008827002089010008710C00086B0C00088B
:100010006F0C00089D03000851100008000000004C
:100020000000000000000000000000008D0E00082D
:10003000E10300080000000001030008450F00086C
:10004000A3010008A3010008A3010008A301000800
:10005000A3010008A3010008A3010008A3010008F0
:10006000A3010008A3010008A3010008A3010008E0
:10007000A3010008A3010008A3010008A3010008D0
:10008000A3010008A3010008A3010008A3010008C0
:10009000A3010008A3010008A3010008A3010008B0
:1000A000A30100089D0F0008A3010008A301000898
:1000B000A3010008A3010008A3010008A301000890
:1000C000A3010008A3010008A3010008A301000880
:1000D000A3010008A3010008A3010008A301000870
:1000E000A3010008A3010008A301000800F002F822
:1000F00000F03AF80AA090E8000C82448344AAF188
:100100000107DA4501D100F02FF8AFF2090EBAE885
:100110000F0013F0010F18BFFB1A43F0010318473B
:10012000EC0F00000C100000103A24BF78C878C112
:10013000FAD8520724BF30C830C144BF04680C60ED
:10014000704700000023002400250026103A28BF35
:1001500078C1FBD8520728BF30C148BF0B60704739
:100160001FB51FBD10B510BD00F058F81146FFF7C0
:10017000F7FF00F07FFF00F076F803B4FFF7F2FF1F
:1001800003BC00F07DF8000009488047094800479B
:10019000FEE7FEE7FEE7FEE7FEE7FEE7FEE7FEE737
:1001A000FEE7FEE704480549054A064B7047000094
:1001B000990F0008ED000008882100208827002002
:1001C00088230020882300204FF0000200B513464A
:1001D00094469646203922BFA0E80C50A0E80C5067
:1001E000B1F12001BFF4F7AF090728BFA0E80C5018
:1001F00048BF0CC05DF804EB890028BF40F8042B11
:1002000008BF704748BF20F8022B11F0804F18BF7D
:1002100000F8012B7047704770477047754600F033
:100220002BF8AE4605006946534620F00700854688
:1002300018B020B5FFF7B6FFBDE820404FF000062C
:100240004FF000074FF000084FF0000B21F00701BE
:10025000AC46ACE8C009ACE8C009ACE8C009ACE801
:10026000C0098D46704710B50446AFF300802046A4
:10027000BDE81040FFF781BF0048704724210020EF
:1002800001491820ABBEFEE72600020070470000BF
:1002900072B6704762B6704772B63B480168002973
:1002A0002CD0D1F800D0394A954527D3384A954506
:1002B00024D26B4613F0070F20D1009C01B0009DA3
:1002C00001B0009E01B0009F01B0DDF8008001B0D8
:1002D000DDF8009001B0DDF800A001B0DDF800B05D
:1002E00001B001BC02BC04BC08BC5DF804CB5DF8E5
:1002F00004EB5DF804EB02BC62B670472548FDE7ED
:1003000021480168002939D072B610B420B440B435
:1003100080B44DF8048D4DF8049D4DF804AD4DF8B2
:1003200004BD6A46194B9A4229D3194B9A4226D2E8
:10033000C1F800D001B400B500F02AFD5DF804EB6F
:1003400001BC016800291AD0D1F800D00F4A9545A8
:1003500015D30F4A954512D26B4613F0070F0ED1F5
:100360005DF804BB5DF804AB5DF8049B5DF8048B9D
:1003700080BC40BC20BC10BC62B6704770470648C9
:100380006946014A1268FAE70C00002000020020CA
:10039000004F0020E10DDCBAEFBEADDEFEE700004D
:1003A000082815DA0B4900EB800201EB82010A7A7A
:1003B000002A0DD0074A084BA03202EB80221268B7
:1003C0009A4205D0054A135C5B1C13540020087246
:1003D0007047000074000020EFBEADDE1400002066
:1003E0007047000001488068704700001C00002032
:1003F0000248816802781144816070471C00002027
:10040000074810B5016841F010010160032000F0B9
:100410009BF80F2000F006F800F04AF8002010BD0D
:100420000020024030B505461C4887B0816941F480
:1004300000618161806906A900F40060009001A854
:1004400000F02AF900F048F91549164AB0FBF1F11D
:100450001548491E0260416040F2E7320021C0E9C0
:1004600003218160816100F0FFFA040012D10E487F
:1004700000F028FB04000DD1192000F037F8102DF2
:1004800007D200222946192000F03EF807480560EF
:1004900000E0012407B0204630BD000000100240FB
:1004A00040420F00002C01402C00002020000020C2
:1004B0000C4808B5816941F001018161816901F051
:1004C00001010091C16941F08051C161C06900F032
:1004D000805000900448416821F0E06141F00071D3
:1004E000416008BD0010024000000140002809DB07
:1004F00000F01F02012191404009800000F1E0203E
:10050000C0F8001170470000F0B40E4B1B680C4699
:10051000C3F30223C3F10705042D00D90425191DD7
:10052000072901D2002300E0DB1E012606FA05F1AF
:10053000491E214099409E40761E16403143F0BC32
:1005400000F087BD0CED00E0064900F007020868E6
:100550004FF6FF03184040EA0220034A10430860A8
:10056000704700000CED00E00000FA052DE9F047AF
:100570000F46050061D0434E306800F00700B842D6
:1005800009D2306820F0070038433060306800F04E
:100590000700B84251D128683B4C810712D540076B
:1005A00003D5606840F4E06060602878000703D5F8
:1005B000606840F4605060606068A96820F0F000F6
:1005C000084360602878C00728D06868012810D0E8
:1005D0002168022810D0890700292EDA616821F0ED
:1005E000030101436160FFF7FDFE804641F2883957
:1005F0000DE021688903EFE78901EDE7FFF7F2FEDF
:10060000A0EB0801494502D90320BDE8F0876068E6
:10061000696800F00C00B0EB810FEFD1306800F09A
:100620000700B8420BD9306820F00700384330602B
:10063000306800F00700B84201D00120E5E72878D3
:10064000400705D56068E96820F4E0600843606011
:100650002878000706D56068296920F4605040EAD0
:10066000C100606000F048F86168084AC1F30311F6
:10067000515CC8400649086006480068FFF7D2FE92
:100680000020C2E70020024000100240F2100008E3
:1006900028000020200000200F2202600C4A53682E
:1006A00003F003034360536803F0F003836053686F
:1006B00003F4E063C36052684FF4E06303EAD202DC
:1006C00002610448006800F00700086070470000FD
:1006D00000100240002002400448054900684968B3
:1006E000044AC1F3C221515CC84070472800002071
:1006F00000100240021100080E4A51680E4801F035
:100700000C03042B11D0082B0FD10C48C1F38343E9
:10071000C903C05C0AD55168084AC1F34041921E22
:10072000515C054A5043B0FBF1F07047044948431F
:10073000704700000010024000127A00E21000082A
:1007400000093D002DE9F84F040070D02078C04D1D
:10075000C00749D06868C0F38100012807D06868E5
:10076000C0F38100022809D16868C00306D5286853
:10077000800339D560680028E7D035E06068B0F5BF
:10078000803F0BD010B1B0F5A02F11D0286820F415
:1007900080302860286820F4802002E0286840F437
:1007A00080302860606890B1FFF71CFE06460AE0C2
:1007B000286840F480202860F0E700BFFFF712FEB1
:1007C000801B642873D828688003F7D50CE0FFF7F6
:1007D00009FE064605E000BFFFF704FE801B642803
:1007E000F0D828688003F7D420789A4E80074FF01D
:1007F00001094FF0000839D5686810F00C0F07D0D8
:100800006868C0F38100022809D16868C00306D473
:100810002868800714D52069012808D110E02069D4
:10082000B0B1C6F80090FFF7DDFD074605E00AE12C
:10083000FFF7D8FDC01B0228C4D828688007F7D569
:100840002868616920F0F80040EAC10028600DE0E6
:10085000C6F80080FFF7C6FD074604E0FFF7C2FDBB
:10086000C01B022823D828688007F7D42078000707
:100870002CD57948A169D9B1C0F80090FFF7B2FD35
:10088000074604E0FFF7AEFDC01B02280FD8686AD8
:100890008007F7D571484FF4FA510068B0FBF1F0CA
:1008A000009000BF0098411E0091FAD20EE080E057
:1008B000C0F80080FFF796FD074604E0FFF792FDC1
:1008C000C01B022875D8686A8007F7D420784007D3
:1008D00060D5E8690027C00008D4E86940F080507E
:1008E000E861E869012700F0805000905C480168E9
:1008F000C90513D40168834641F480710160FFF794
:1009000071FD824606E000BFFFF76CFDA0EB0A0018
:1009100064284ED8DBF80000C005F5D5E068012852
:100920000AD008B1052813D0286A20F001002862F7
:10093000286A20F0040002E0286A40F001002862E2
:10094000E06841F2883B98B1FFF74CFD82460BE02E
:10095000286A40F004002862EEE700BFFFF742FD7E
:10096000A0EB0A0159455AD8286A8007F6D50CE051
:10097000FFF738FD824605E0FFF734FDA0EB0A01E2
:1009800059454CD8286A8007F6D41FB1E86920F091
:100990008050E861E06988B36968C1F38101022988
:1009A00044D00228C6F8608004D0FFF71BFD04463F
:1009B00038E034E0FFF716FD074604E0FFF712FDCC
:1009C000C01B02282BD828688001F7D4206AB0F514
:1009D000803F05D16868A16820F400300843686052
:1009E000D4E908010843696821F474110843686078
:1009F000C6F86090FFF7F6FC044606E025E000BF6D
:100A0000FFF7F0FC001B022809D828688001F7D501
:100A10001BE000BFFFF7E6FC001B022802D9032001
:100A2000BDE8F88F28688001F4D40EE00128F7D0E3
:100A30006868226A00F48031914204D1616A00F44E
:100A40007010884201D00120EAE70020E8E70000AA
:100A50000010024000004242800442422800002070
:100A6000007000407047704710B5040003D094F840
:100A70003D0010B107E0012010BD002084F83C00CB
:100A8000204600F01EF8022084F83D00211D206859
:100A900000F08AFA012084F8460084F83E0084F8C9
:100AA0003F0084F8400084F8410084F8420084F854
:100AB000430084F8440084F8450084F83D00002099
:100AC00010BD704790F83D10012901D001207047FA
:100AD000022180F83D100168CA6842F00102CA6034
:100AE00000680B49884208D0B0F1804F05D0094911
:100AF000884202D00849884204D1816801F0070188
:100B0000062903D0016841F001010160002070470F
:100B1000002C0140000400400008004070472DE90F
:100B2000F04104460068C66805694FF00007A90750
:100B300013D5B10711D5F91E016101202077206876
:100B400080698007204602D0FFF7E8FF04E000F04C
:100B50007EF8204600F07CF82777680716D57007E6
:100B600014D521686FF00400086102202077206806
:100B7000806910F4407F204602D0FFF7CFFF04E0E9
:100B800000F065F8204600F063F82777280715D5B0
:100B9000300713D521686FF0080008610420207722
:100BA0002068C0698007204602D0FFF7B7FF04E045
:100BB00000F04DF8204600F04BF82777E80616D5F0
:100BC000F00614D521686FF0100008610820207726
:100BD0002068C06910F4407F204602D0FFF79EFFD6
:100BE00004E000F034F8204600F032F82777E807F8
:100BF00008D0F00706D021686FF001000861204698
:100C000000F028F8280608D5300606D521686FF0D0
:100C1000800008612046FFF725FF680608D57006AA
:100C200006D521686FF040000861204600F01CF8EE
:100C3000A8060AD5B00608D521686FF02000086123
:100C40002046BDE8F041FFF70EBFBDE8F0817047D8
:100C50007047000000680349884201D1FFF7C8BB14
:100C600070470000002C01407047FEE7FEE7FEE7FA
:100C7000FEE7000070B50B4601000DD072B60120F2
:100C8000134C00BF00EB800504EB85052D7A2DB1D8
:100C9000401C0828F6DB62B6002070BD00EB800522
:100CA00004EB850501262E726B720023C5E9033221
:100CB00000F0EEF807498868012807D062686A608A
:100CC000401C6560886062B6012070BD6C60F7E70B
:100CD000740000200800002070B572B60020144D8A
:100CE000144B154E044600BF00EB800205EB820159
:100CF0000C7245F822404C604C72CC600C6123F8B9
:100D000010403454401C0828EEDB0C49002000F051
:100D1000BFF801212972FF20687209A06D60C5E942
:100D2000034005480C38C0E90151047062B670BD3B
:100D30007400002014210020140000206D0C000815
:100D400049646C65000000000E4910B58A68002AED
:100D500016D00D4A1268B2FBF0F24FF0E020521E9E
:100D600042610022826107220261084AF02082F873
:100D7000140D0120087000F00BF8FFF78DFAFEE764
:100D800010BD000008000020280000200EE000E058
:100D9000F0B5134C207800281ED06668002E1BD0BA
:100DA0000021104DFF230A4602EB820005EB800074
:100DB000077A012F0BD1C7684FB9477A9F4202D2F9
:100DC00001463B4603E002D1B04200D10146521C2D
:100DD000082AE9DB09B16160F0BD6560F0BD000083
:100DE0000800002074000020094A516800290ED034
:100DF0001278002A0BD072B6C86008B1022000E059
:100E00000120087262B603494FF0805008607047B5
:100E10000800002004ED00E030B5194908780028EA
:100E20002DD00020174D012400EB800205EB82023B
:100E3000137A022B05D1D3681BB15B1ED36000D19E
:100E40001472401C0828EFDB4878401CC0B2487080
:100E500064280FD3002048704FEA000404EB84009C
:100E600005EB8000007A10B12046FFF799FA641C68
:100E7000082CF3DB0448016841F08051016030BD6B
:100E8000080000207400002004ED00E0704700001E
:100E900010B5082851DA294A00234FF0A53402EB97
:100EA000802200BF42F823405B1CFF2BFADD244B5D
:100EB000136002F5806222F007024FF0807342E96E
:100EC00002136FF0020142F80C1C4FF0123142F88D
:100ED000101C4FF0033142F8141C4FF0023142F85D
:100EE000181C491042F81C1C002142F8201C4FF02D
:100EF000113142F8241C4FF0103142F8281C4FF0F9
:100F0000093142F82C1C4FF0083142F8301C4FF0E8
:100F1000073142F8341C4FF0063142F8381C4FF0CC
:100F2000053142F83C1D4FF0043142F8041D0349DD
:100F300000EB8000A03941F8202010BD14010020F2
:100F4000EFBEADDEFFF768BF10B590B02821684650
:100F5000FFF73AF914210AA8FFF736F902200090AA
:100F60000120049010200024059007946846FFF7A4
:100F7000E9FB08B172B6FEE70F20CDE90A040C9434
:100F80000D9400210AA80E94FFF7F0FA002801D072
:100F900072B6FEE710B010BD704700000148FFF7C1
:100FA000BEBD00002C000020F0B50268194B1A4CA1
:100FB0001A4D4FF08047984205D0B84203D0A04266
:100FC00001D0A84203D122F070064A683243984209
:100FD00005D0B84203D0A04201D0A84203D122F4E8
:100FE0004074CA6822434C6922F0800222430260A6
:100FF0008A68C2620A688262984201D10969016303
:10100000012141610169C90703D0016921F0010192
:101010000161F0BD002C01400004004000080040C8
:10102000044C4FF47A752068401C20602846FFF776
:10103000DBFEF8E700000020044C4FF4FA6560681E
:10104000401C60602846FFF7CFFEF8E70000002054
:10105000FEE70907090E002804DB00F1E02080F814
:101060000014704700F00F0000F1E02080F8141D1C
:101070007047000008B5FFF7C3F9FFF765FF114897
:10108000816941F020018161816901F020010091B5
:10109000816941F004018161806900F004000090E1
:1010A000FFF71AFE08A200210948FFF7E3FD09A295
:1010B00000210A48FFF7DEFD4FF47A70FFF744FE87
:1010C000002008BD001002405461736B3100000025
:1010D000211000085461736B3200000039100008C1
:1010E000010202030405060708090A0B0C0D0E0F86
:1010F00010100000000000000000010203040607B9
:101100000809000000000102030400002C1100087F
:10111000000000202C0000002801000858110008E1
:101120002C0000205C2700004401000800000000A3
:1011300000000000000000000000000000000000AF
:10114000000000000000000001000000100000008E
:081150000000000000127A000B
:04000005080000ED02
:00000001FF
